S01800004C45442D5363616E6E65722056312E302E737265633B
S11300000C942A000C9447000C9447000C9447006D
S11300100C9447000C9447000C9447000C94B000D7
S11300200C9447000C9447000C9447000C94470030
S11300300C9447000C94D1010C94FD010C944700DE
S11300400C9447000C9447000C9447000C94470010
S11300500C94470011241FBECFE5D8E0DEBFCDBF0E
S113006010E0A0E6B0E0E0E6FAE002C005900D92F0
S1130070AA38B107D9F720E0AAE8B0E001C01D9280
S1130080A83EB207E1F70E9444010C942E050C949B
S1130090000000C000C000C000C000C000C00000DC
S11300A00895A198A098A998A8980895A19AF1DF15
S11300B01DD00895A09AEDDFA198EBDFA098E9DFA9
S11300C0A19AE7DF13D00895082EA19AE2DF802DCC
S11300D00DD0882311F002D0F8CF0895A09AA19AE8
S11300E0D8DFA098D6DFA198D4DF08950894881F9C
S11300F001C0880F59F0A09A18F40000A19802C01A
S1130100A19A00C0C6DFA098C4DFF3CFA09AA1983B
S1130110C0DFA098989BFECF8827999981E0B9DF2A
S113012099270895882701C081E071E0A09AA198D9
S1130130B0DFA098AEDF989BFECF8894999908947D
S1130140771FA0F7A09A813011F0A19801C0A19A5D
S1130150A0DFA098989BFECF9CDF872F9927089556
S11301601F920F920FB60F9211248F938091D1009A
S11301708F5F8093D1008091D100843628F0109253
S1130180D10085B3805885BB8F910F900FBE0F901F
S11301901F9018951F93CF93DF93C82F0E9464007C
S11301A082E10E9476000E946E0081E08C0F0E9422
S11301B064000E949400182F0E949200C82FD0E07F
S11301C00E946E009C2F8827812BDF91CF911F9175
S11301D00895CF93C82F0E9456008093E700809122
S11301E0E700811117C0C03431F48091E6008F5FBD
S11301F08093E6000FC0C23431F48091E6008E5F34
S11302008093E60007C0C43429F48091E600885F37
S11302108093E6000E946E008091E600CF910895DD
S11302200F931F93CF93DF9300D000D0CDB7DEB7E9
S11302301092E60080E40E94E90082E40E94E90052
S113024084E40E94E9008091E6001F928F9380E687
S113025090E09F938F938E010F5F1F4F1F930F9317
S11302600E945602C8010E9447020F900F900F90FF
S11302700F900F900F900F900F900F900F90DF91B1
S1130280CF911F910F910895A79A8EB58D608EBD61
S113029089B7806189BF8BE990E09BBD8ABD87E601
S11302A090E00E9422020E945100789484E690E03B
S11302B00E94470287E890E00E94470285E790E0A9
S11302C00E94470284E890E00E944702AF9800E64B
S11302D010E0C2EDD0E00E94100180E40E94CA0048
S11302E08093CF009093D0009F938F931F930F938D
S11302F0DF93CF930E945602CE010E94470286E804
S113030090E00E94470282E40E94CA008093CF00DA
S11303109093D0009F938F931F930F93DF93CF936A
S11303200E945602CE010E94470284E40E94CA0041
S11303308093CF009093D0009F938F931F930F933C
S1130340DF93CF930E945602CE010E94470280B3EE
S1130350807790E0929582958F7089279F70892786
S11303609093D0008093CF009F938F931F930F930C
S1130370DF93CF930E945602CE010E9447029FEF63
S113038027EE83E0915020408040E1F700C0000058
S11303908DB79EB748960FB6F8949EBF0FBE8DBF1B
S11303A09ACF1F920F920FB60F9211242F938F930F
S11303B09F93EF93FF938BB12CB18871E0918C00E4
S11303C0EF5FEF7190918B00E91739F0E0938C00A7
S11303D0F0E0E157FF4F208301C082E090918A0052
S11303E0892B80938A00FF91EF919F918F912F9198
S11303F00F900FBE0F901F9018951F920F920FB67B
S11304000F9211248F939F93EF93FF9390918E00FB
S113041080918D00981761F0E0918D00EF5FEF718E
S1130420E0938D00F0E0E155FF4F80818CB901C06D
S11304305598FF91EF919F918F910F900FBE0F9060
S11304401F90189510928E0010928D0010928C00BF
S113045010928B0099231CF422E02BB99F7790BD56
S113046089B988E98AB986E880BD089520918E000B
S11304702F5F2F7190918D002917E1F3E22FF0E0A7
S1130480E155FF4F808320938E00559A0895CF93B2
S1130490DF93EC018881882331F021960E94360293
S11304A089918111FBCFDF91CF910895AEE0B0E047
S11304B0ECE5F2E00C9405050D891E8986E08C8339
S11304C01A8309838FEF9FE79E838D83AE01475E76
S11304D05F4F6F89788DCE0101960E9479022F813A
S11304E03885F801E20FF31F10822E96E4E00C9495
S11304F02105ACE0B0E0EFE7F2E00C94F7047C01F6
S11305006B018A01FC0117821682838181FFBDC1C0
S1130510CE0101964C01F7019381F60193FD85917B
S113052093FF81916F01882309F4ABC1853239F4BB
S113053093FD859193FF81916F01853229F4B70171
S113054090E00E946104E7CF512C312C20E020324E
S1130550A0F48B3269F030F4803259F0833269F4BC
S113056020612CC08D3239F0803339F4216026C0EB
S11305702260246023C0286021C027FD27C030EDFD
S1130580380F3A3078F426FF06C0FAE05F9E300D4B
S11305901124532E13C08AE0389E300D1124332EBB
S11305A020620CC08E3221F426FD6BC1206406C08B
S11305B08C3611F4206802C0883641F4F60193FDAC
S11305C0859193FF81916F018111C1CF982F9F7DF8
S11305D09554933028F40C5F1F4FFFE3F9830DC04B
S11305E0833631F0833771F0833509F05BC022C064
S11305F0F801808189830E5F1F4F44244394512C5A
S1130600540115C03801F2E06F0E711CF801A0808E
S1130610B18026FF03C0652D70E002C06FEF7FEF4D
S1130620C5012C870E9456042C0183012C852F7749
S1130630222E17C03801F2E06F0E711CF801A08061
S1130640B18026FF03C0652D70E002C06FEF7FEF1D
S1130650C5012C870E944B042C012C852068222E76
S1130660830123FC1BC0832D90E048165906B0F487
S1130670B70180E290E00E9461043A94F4CFF5015E
S113068027FC859127FE81915F01B70190E00E94CC
S1130690610431103A94F1E04F1A510841145104A5
S11306A071F7E5C0843611F0893639F5F80127FF72
S11306B007C060817181828193810C5F1F4F08C0E4
S11306C060817181072E000C880B990B0E5F1F4F00
S11306D02F76722E97FF09C090958095709561953D
S11306E07F4F8F4F9F4F2068722E2AE030E0A40185
S11306F00E949904A82EA81844C0853729F42F7E97
S1130700B22E2AE030E025C0F22FF97FBF2E8F36BB
S1130710C1F018F4883579F0B4C0803719F08837FF
S113072021F0AFC02F2F2061B22EB4FE0DC08B2D4F
S11307308460B82E09C024FF0AC09F2F9660B92E8A
S113074006C028E030E005C020E130E002C020E12E
S113075032E0F801B7FE07C0608171818281938124
S11307600C5F1F4F06C06081718180E090E00E5FD6
S11307701F4FA4010E949904A82EA818FB2DFF77EF
S11307807F2E76FE0BC0372D3E7FA51450F474FEE9
S11307900AC072FC08C0372D3E7E05C0BA2C372D26
S11307A003C0BA2C01C0B52C34FF0DC0FE01EA0D04
S11307B0F11D8081803311F4397E09C032FF06C0F7
S11307C0B394B39404C0832F867809F0B39433FDB3
S11307D013C030FF06C05A2CB31418F4530C5B1822
S11307E0B32CB31468F4B70180E290E03C870E9414
S11307F06104B3943C85F5CFB31410F43B1801C0E5
S1130800312C34FF12C0B70180E390E03C870E9492
S113081061043C8532FF17C031FD03C088E790E0D6
S113082002C088E590E0B7010CC0832F867859F0A8
S113083031FF02C08BE201C080E237FD8DE2B701D7
S113084090E00E946104A51438F4B70180E390E0BD
S11308500E9461045A94F7CFAA94F401EA0DF11DA1
S11308608081B70190E00E946104A110F5CF33208C
S113087009F451CEB70180E290E00E9461043A94F9
S1130880F6CFF7018681978102C08FEF9FEF2C96F8
S1130890E2E10C941305FC010590615070400110D5
S11308A0D8F7809590958E0F9F1F0895FC01615095
S11308B0704001900110D8F7809590958E0F9F1F7E
S11308C008950F931F93CF93DF93FB01238121FDA1
S11308D003C08FEF9FEF28C022FF16C046815781C7
S11308E0248135814217530744F4A081B1819D01CD
S11308F02F5F3F4F318320838C93268137812F5F75
S11309003F4F3783268310C0EB01092F182F008433
S1130910F185E02D0995892BE1F68E819F81019661
S11309209F838E83812F902FDF91CF911F910F9101
S11309300895FA01AA27283051F1203181F1E89471
S11309406F936E7F6E5F7F4F8F4F9F4FAF4FB1E0BE
S11309503ED0B4E03CD0670F781F891F9A1FA11DB9
S1130960680F791F8A1F911DA11D6A0F711D811DBA
S1130970911DA11D20D009F468943F912AE0269F7F
S113098011243019305D3193DEF6CF010895462FDE
S11309904770405D4193B3E00FD0C9F7F6CF462FBF
S11309A04F70405D4A3318F0495D31FD4052419328
S11309B002D0A9F7EACFB4E0A695979587957795E5
S11309C06795BA95C9F700976105710508959B016C
S11309D0AC010A2E06945795479537952795BA95F5
S11309E0C9F7620F731F841F951FA01D08952F92CE
S11309F03F924F925F926F927F928F929F92AF92AB
S1130A00BF92CF92DF92EF92FF920F931F93CF93F7
S1130A10DF93CDB7DEB7CA1BDB0B0FB6F894DEBF8E
S1130A200FBECDBF09942A88398848885F846E84B4
S1130A307D848C849B84AA84B984C884DF80EE80FE
S1130A40FD800C811B81AA81B981CE0FD11D0FB607
S1130A50F894DEBF0FBECDBFED010895F894FFCF2B
S1130A60257520004C4544205363616E6E657220E9
S1130A7056312E30004669726D7761726520627955
S10D0A8020486D000A000A0D000072
S9030000FC
